{
  "contractName": "NumberV1",
  "abi": [
    {
      "inputs": [
        {
          "internalType": "address",
          "name": "_owner",
          "type": "address"
        }
      ],
      "name": "initialize",
      "outputs": [],
      "stateMutability": "nonpayable",
      "type": "function"
    },
    {
      "inputs": [
        {
          "internalType": "uint256",
          "name": "_number",
          "type": "uint256"
        }
      ],
      "name": "update_number",
      "outputs": [],
      "stateMutability": "nonpayable",
      "type": "function"
    },
    {
      "inputs": [],
      "name": "get_number",
      "outputs": [
        {
          "internalType": "uint256",
          "name": "",
          "type": "uint256"
        }
      ],
      "stateMutability": "view",
      "type": "function",
      "constant": true
    }
  ],
  "bytecode": "0x608060405234801561001057600080fd5b50610346806100206000396000f3fe608060405234801561001057600080fd5b50600436106100415760003560e01c806340e0aebe14610046578063c4d66de814610062578063eeb4e3671461007e575b600080fd5b610060600480360381019061005b91906101d6565b61009c565b005b61007c600480360381019061007791906101ad565b610136565b005b61008661017a565b6040516100939190610251565b60405180910390f35b600160009054906101000a900473ffffffffffffffffffffffffffffffffffffffff1673ffffffffffffffffffffffffffffffffffffffff163373ffffffffffffffffffffffffffffffffffffffff161461012c576040517f08c379a000000000000000000000000000000000000000000000000000000000815260040161012390610231565b60405180910390fd5b8060008190555050565b80600160006101000a81548173ffffffffffffffffffffffffffffffffffffffff021916908373ffffffffffffffffffffffffffffffffffffffff16021790555050565b60008054905090565b600081359050610192816102e2565b92915050565b6000813590506101a7816102f9565b92915050565b6000602082840312156101bf57600080fd5b60006101cd84828501610183565b91505092915050565b6000602082840312156101e857600080fd5b60006101f684828501610198565b91505092915050565b600061020c60188361026c565b9150610217826102b9565b602082019050919050565b61022b816102af565b82525050565b6000602082019050818103600083015261024a816101ff565b9050919050565b60006020820190506102666000830184610222565b92915050565b600082825260208201905092915050565b60006102888261028f565b9050919050565b600073ffffffffffffffffffffffffffffffffffffffff82169050919050565b6000819050919050565b7f43616c6c6572206973206e6f7420746865206f776e65722e0000000000000000600082015250565b6102eb8161027d565b81146102f657600080fd5b50565b610302816102af565b811461030d57600080fd5b5056fea2646970667358221220d3d09f87b6d1cbd4b4672a3155258e577e5b01ddd25fa045624bfbcf0b32814664736f6c63430008030033",
  "immutableReferences": {},
  "source": "pragma solidity >0.8.0;\n\ncontract NumberV1 {\n    uint256 private number;\n    address private owner;\n\n    modifier only_owner() {\n        require(msg.sender == owner, \"Caller is not the owner.\");\n        _;\n    }\n\n    function initialize(address _owner) public {\n        owner = _owner;\n    }\n\n    function update_number(uint256 _number) public only_owner {\n        number = _number;\n    }\n\n    function get_number() public view returns(uint256) {\n        return number;\n    }\n}",
  "sourcePath": "/home/sebdev69/Documents/uvg/2021/s1/blockchain/upgradable-smart-contracts/contracts/NumberV1.sol",
  "compiler": {
    "name": "solc",
    "version": "0.8.3+commit.8d00100c.Emscripten.clang"
  },
  "schemaVersion": "3.3.4",
  "updatedAt": "2021-04-07T01:15:21.511Z",
  "networkType": "ethereum",
  "devdoc": {
    "kind": "dev",
    "methods": {},
    "version": 1
  },
  "userdoc": {
    "kind": "user",
    "methods": {},
    "version": 1
  }
}