{
  "contractName": "NumberV2",
  "abi": [
    {
      "inputs": [
        {
          "internalType": "address",
          "name": "_owner",
          "type": "address"
        }
      ],
      "name": "initialize",
      "outputs": [],
      "stateMutability": "nonpayable",
      "type": "function"
    },
    {
      "inputs": [
        {
          "internalType": "uint256",
          "name": "_number",
          "type": "uint256"
        }
      ],
      "name": "update_number",
      "outputs": [],
      "stateMutability": "nonpayable",
      "type": "function"
    },
    {
      "inputs": [],
      "name": "get_number",
      "outputs": [
        {
          "internalType": "uint256",
          "name": "",
          "type": "uint256"
        }
      ],
      "stateMutability": "view",
      "type": "function",
      "constant": true
    },
    {
      "inputs": [
        {
          "internalType": "uint256",
          "name": "_number",
          "type": "uint256"
        }
      ],
      "name": "substract_to_number",
      "outputs": [
        {
          "internalType": "bool",
          "name": "",
          "type": "bool"
        }
      ],
      "stateMutability": "nonpayable",
      "type": "function"
    }
  ],
  "bytecode": "0x608060405234801561001057600080fd5b5061057a806100206000396000f3fe608060405234801561001057600080fd5b506004361061004c5760003560e01c806340e0aebe1461005157806358d5b7f31461006d578063c4d66de81461009d578063eeb4e367146100b9575b600080fd5b61006b60048036038101906100669190610305565b6100d7565b005b61008760048036038101906100829190610305565b610171565b6040516100949190610392565b60405180910390f35b6100b760048036038101906100b291906102dc565b610265565b005b6100c16102a9565b6040516100ce91906103ed565b60405180910390f35b600160009054906101000a900473ffffffffffffffffffffffffffffffffffffffff1673ffffffffffffffffffffffffffffffffffffffff163373ffffffffffffffffffffffffffffffffffffffff1614610167576040517f08c379a000000000000000000000000000000000000000000000000000000000815260040161015e906103cd565b60405180910390fd5b8060008190555050565b6000600160009054906101000a900473ffffffffffffffffffffffffffffffffffffffff1673ffffffffffffffffffffffffffffffffffffffff163373ffffffffffffffffffffffffffffffffffffffff1614610203576040517f08c379a00000000000000000000000000000000000000000000000000000000081526004016101fa906103cd565b60405180910390fd5b816000541015610248576040517f08c379a000000000000000000000000000000000000000000000000000000000815260040161023f906103ad565b60405180910390fd5b816000546102569190610419565b60008190555060019050919050565b80600160006101000a81548173ffffffffffffffffffffffffffffffffffffffff021916908373ffffffffffffffffffffffffffffffffffffffff16021790555050565b60008054905090565b6000813590506102c181610516565b92915050565b6000813590506102d68161052d565b92915050565b6000602082840312156102ee57600080fd5b60006102fc848285016102b2565b91505092915050565b60006020828403121561031757600080fd5b6000610325848285016102c7565b91505092915050565b6103378161045f565b82525050565b600061034a601e83610408565b9150610355826104c4565b602082019050919050565b600061036d601883610408565b9150610378826104ed565b602082019050919050565b61038c8161048b565b82525050565b60006020820190506103a7600083018461032e565b92915050565b600060208201905081810360008301526103c68161033d565b9050919050565b600060208201905081810360008301526103e681610360565b9050919050565b60006020820190506104026000830184610383565b92915050565b600082825260208201905092915050565b60006104248261048b565b915061042f8361048b565b92508282101561044257610441610495565b5b828203905092915050565b60006104588261046b565b9050919050565b60008115159050919050565b600073ffffffffffffffffffffffffffffffffffffffff82169050919050565b6000819050919050565b7f4e487b7100000000000000000000000000000000000000000000000000000000600052601160045260246000fd5b7f576520646f6e74206c696b65206e65676174697665206e756d626572732e0000600082015250565b7f43616c6c6572206973206e6f7420746865206f776e65722e0000000000000000600082015250565b61051f8161044d565b811461052a57600080fd5b50565b6105368161048b565b811461054157600080fd5b5056fea26469706673582212200a87730e1b49623a5e12ae415897dd65c4a641ff2fbbc98987681c1c7f6e40c264736f6c63430008030033",
  "immutableReferences": {},
  "source": "pragma solidity >0.8.0;\n\ncontract NumberV2 {\n    uint256 private number;\n    address private owner;\n\n    modifier only_owner() {\n        require(msg.sender == owner, \"Caller is not the owner.\");\n        _;\n    }\n\n    function initialize(address _owner) public {\n        owner = _owner;\n    }\n\n    function update_number(uint256 _number) public only_owner {\n        number = _number;\n    }\n\n    function get_number() public view returns(uint256) {\n        return number;\n    }\n\n    function substract_to_number(uint256 _number) public only_owner returns(bool) {\n        require(number >= _number, \"We dont like negative numbers.\");\n\n        number = number - _number;\n\n        return true;\n    }\n}",
  "sourcePath": "/home/sebdev69/Documents/uvg/2021/s1/blockchain/upgradable-smart-contracts/contracts/NumberV2.sol",
  "compiler": {
    "name": "solc",
    "version": "0.8.3+commit.8d00100c.Emscripten.clang"
  },
  "schemaVersion": "3.3.4",
  "updatedAt": "2021-04-07T01:15:21.514Z",
  "networkType": "ethereum",
  "devdoc": {
    "kind": "dev",
    "methods": {},
    "version": 1
  },
  "userdoc": {
    "kind": "user",
    "methods": {},
    "version": 1
  }
}